{
  "contractName": "SecurityToken",
  "abi": [
    {
      "constant": false,
      "inputs": [],
      "name": "distributeDividends",
      "outputs": [],
      "payable": true,
      "stateMutability": "payable",
      "type": "function"
    },
    {
      "constant": true,
      "inputs": [],
      "name": "name",
      "outputs": [
        {
          "name": "",
          "type": "string"
        }
      ],
      "payable": false,
      "stateMutability": "view",
      "type": "function"
    },
    {
      "constant": false,
      "inputs": [
        {
          "name": "spender",
          "type": "address"
        },
        {
          "name": "value",
          "type": "uint256"
        }
      ],
      "name": "approve",
      "outputs": [
        {
          "name": "",
          "type": "bool"
        }
      ],
      "payable": false,
      "stateMutability": "nonpayable",
      "type": "function"
    },
    {
      "constant": true,
      "inputs": [],
      "name": "totalSupply",
      "outputs": [
        {
          "name": "",
          "type": "uint256"
        }
      ],
      "payable": false,
      "stateMutability": "view",
      "type": "function"
    },
    {
      "constant": true,
      "inputs": [
        {
          "name": "_owner",
          "type": "address"
        }
      ],
      "name": "accumulativeDividendOf",
      "outputs": [
        {
          "name": "",
          "type": "uint256"
        }
      ],
      "payable": false,
      "stateMutability": "view",
      "type": "function"
    },
    {
      "constant": true,
      "inputs": [],
      "name": "decimals",
      "outputs": [
        {
          "name": "",
          "type": "uint8"
        }
      ],
      "payable": false,
      "stateMutability": "view",
      "type": "function"
    },
    {
      "constant": false,
      "inputs": [
        {
          "name": "spender",
          "type": "address"
        },
        {
          "name": "addedValue",
          "type": "uint256"
        }
      ],
      "name": "increaseAllowance",
      "outputs": [
        {
          "name": "",
          "type": "bool"
        }
      ],
      "payable": false,
      "stateMutability": "nonpayable",
      "type": "function"
    },
    {
      "constant": false,
      "inputs": [
        {
          "name": "account",
          "type": "address"
        },
        {
          "name": "amount",
          "type": "uint256"
        }
      ],
      "name": "mint",
      "outputs": [
        {
          "name": "",
          "type": "bool"
        }
      ],
      "payable": false,
      "stateMutability": "nonpayable",
      "type": "function"
    },
    {
      "constant": false,
      "inputs": [],
      "name": "withdrawDividend",
      "outputs": [],
      "payable": false,
      "stateMutability": "nonpayable",
      "type": "function"
    },
    {
      "constant": true,
      "inputs": [
        {
          "name": "account",
          "type": "address"
        }
      ],
      "name": "balanceOf",
      "outputs": [
        {
          "name": "",
          "type": "uint256"
        }
      ],
      "payable": false,
      "stateMutability": "view",
      "type": "function"
    },
    {
      "constant": true,
      "inputs": [],
      "name": "RTOKEN_DECIMALS",
      "outputs": [
        {
          "name": "",
          "type": "uint8"
        }
      ],
      "payable": false,
      "stateMutability": "view",
      "type": "function"
    },
    {
      "constant": true,
      "inputs": [],
      "name": "registry",
      "outputs": [
        {
          "name": "",
          "type": "address"
        }
      ],
      "payable": false,
      "stateMutability": "view",
      "type": "function"
    },
    {
      "constant": true,
      "inputs": [
        {
          "name": "_owner",
          "type": "address"
        }
      ],
      "name": "dividendOf",
      "outputs": [
        {
          "name": "",
          "type": "uint256"
        }
      ],
      "payable": false,
      "stateMutability": "view",
      "type": "function"
    },
    {
      "constant": true,
      "inputs": [],
      "name": "symbol",
      "outputs": [
        {
          "name": "",
          "type": "string"
        }
      ],
      "payable": false,
      "stateMutability": "view",
      "type": "function"
    },
    {
      "constant": false,
      "inputs": [
        {
          "name": "account",
          "type": "address"
        }
      ],
      "name": "addMinter",
      "outputs": [],
      "payable": false,
      "stateMutability": "nonpayable",
      "type": "function"
    },
    {
      "constant": false,
      "inputs": [],
      "name": "renounceMinter",
      "outputs": [],
      "payable": false,
      "stateMutability": "nonpayable",
      "type": "function"
    },
    {
      "constant": false,
      "inputs": [
        {
          "name": "spender",
          "type": "address"
        },
        {
          "name": "subtractedValue",
          "type": "uint256"
        }
      ],
      "name": "decreaseAllowance",
      "outputs": [
        {
          "name": "",
          "type": "bool"
        }
      ],
      "payable": false,
      "stateMutability": "nonpayable",
      "type": "function"
    },
    {
      "constant": true,
      "inputs": [
        {
          "name": "_owner",
          "type": "address"
        }
      ],
      "name": "withdrawableDividendOf",
      "outputs": [
        {
          "name": "",
          "type": "uint256"
        }
      ],
      "payable": false,
      "stateMutability": "view",
      "type": "function"
    },
    {
      "constant": true,
      "inputs": [
        {
          "name": "account",
          "type": "address"
        }
      ],
      "name": "isMinter",
      "outputs": [
        {
          "name": "",
          "type": "bool"
        }
      ],
      "payable": false,
      "stateMutability": "view",
      "type": "function"
    },
    {
      "constant": true,
      "inputs": [
        {
          "name": "_owner",
          "type": "address"
        }
      ],
      "name": "withdrawnDividendOf",
      "outputs": [
        {
          "name": "",
          "type": "uint256"
        }
      ],
      "payable": false,
      "stateMutability": "view",
      "type": "function"
    },
    {
      "constant": true,
      "inputs": [
        {
          "name": "owner",
          "type": "address"
        },
        {
          "name": "spender",
          "type": "address"
        }
      ],
      "name": "allowance",
      "outputs": [
        {
          "name": "",
          "type": "uint256"
        }
      ],
      "payable": false,
      "stateMutability": "view",
      "type": "function"
    },
    {
      "inputs": [
        {
          "name": "_registry",
          "type": "address"
        },
        {
          "name": "_name",
          "type": "string"
        },
        {
          "name": "_symbol",
          "type": "string"
        }
      ],
      "payable": false,
      "stateMutability": "nonpayable",
      "type": "constructor"
    },
    {
      "payable": true,
      "stateMutability": "payable",
      "type": "fallback"
    },
    {
      "anonymous": false,
      "inputs": [
        {
          "indexed": false,
          "name": "reason",
          "type": "uint8"
        },
        {
          "indexed": true,
          "name": "from",
          "type": "address"
        },
        {
          "indexed": true,
          "name": "to",
          "type": "address"
        },
        {
          "indexed": false,
          "name": "value",
          "type": "uint256"
        }
      ],
      "name": "CheckStatus",
      "type": "event"
    },
    {
      "anonymous": false,
      "inputs": [
        {
          "indexed": true,
          "name": "from",
          "type": "address"
        },
        {
          "indexed": false,
          "name": "weiAmount",
          "type": "uint256"
        }
      ],
      "name": "DividendsDistributed",
      "type": "event"
    },
    {
      "anonymous": false,
      "inputs": [
        {
          "indexed": true,
          "name": "to",
          "type": "address"
        },
        {
          "indexed": false,
          "name": "weiAmount",
          "type": "uint256"
        }
      ],
      "name": "DividendWithdrawn",
      "type": "event"
    },
    {
      "anonymous": false,
      "inputs": [
        {
          "indexed": true,
          "name": "account",
          "type": "address"
        }
      ],
      "name": "MinterAdded",
      "type": "event"
    },
    {
      "anonymous": false,
      "inputs": [
        {
          "indexed": true,
          "name": "account",
          "type": "address"
        }
      ],
      "name": "MinterRemoved",
      "type": "event"
    },
    {
      "anonymous": false,
      "inputs": [
        {
          "indexed": true,
          "name": "from",
          "type": "address"
        },
        {
          "indexed": true,
          "name": "to",
          "type": "address"
        },
        {
          "indexed": false,
          "name": "value",
          "type": "uint256"
        }
      ],
      "name": "Transfer",
      "type": "event"
    },
    {
      "anonymous": false,
      "inputs": [
        {
          "indexed": true,
          "name": "owner",
          "type": "address"
        },
        {
          "indexed": true,
          "name": "spender",
          "type": "address"
        },
        {
          "indexed": false,
          "name": "value",
          "type": "uint256"
        }
      ],
      "name": "Approval",
      "type": "event"
    },
    {
      "constant": false,
      "inputs": [
        {
          "name": "_to",
          "type": "address"
        },
        {
          "name": "_value",
          "type": "uint256"
        }
      ],
      "name": "transfer",
      "outputs": [
        {
          "name": "",
          "type": "bool"
        }
      ],
      "payable": false,
      "stateMutability": "nonpayable",
      "type": "function"
    },
    {
      "constant": false,
      "inputs": [
        {
          "name": "_from",
          "type": "address"
        },
        {
          "name": "_to",
          "type": "address"
        },
        {
          "name": "_value",
          "type": "uint256"
        }
      ],
      "name": "transferFrom",
      "outputs": [
        {
          "name": "",
          "type": "bool"
        }
      ],
      "payable": false,
      "stateMutability": "nonpayable",
      "type": "function"
    },
    {
      "constant": true,
      "inputs": [],
      "name": "_service",
      "outputs": [
        {
          "name": "",
          "type": "address"
        }
      ],
      "payable": false,
      "stateMutability": "view",
      "type": "function"
    }
  ],
  "bytecode": "0x60806040523480156200001157600080fd5b50604051620029a8380380620029a8833981018060405260608110156200003757600080fd5b810190808051906020019092919080516401000000008111156200005a57600080fd5b828101905060208101848111156200007157600080fd5b81518560018202830111640100000000821117156200008f57600080fd5b50509291906020018051640100000000811115620000ac57600080fd5b82810190506020810184811115620000c357600080fd5b8151856001820283011164010000000082111715620000e157600080fd5b505092919050505081816012620000fe33620001d360201b60201c565b826007908051906020019062000116929190620003f8565b5081600890805190602001906200012f929190620003f8565b5080600960006101000a81548160ff021916908360ff160217905550505050600073ffffffffffffffffffffffffffffffffffffffff168373ffffffffffffffffffffffffffffffffffffffff1614156200018957600080fd5b82600960016101000a81548173ffffffffffffffffffffffffffffffffffffffff021916908373ffffffffffffffffffffffffffffffffffffffff160217905550505050620004a7565b620001ee8160036200023460201b62001f4d1790919060201c565b8073ffffffffffffffffffffffffffffffffffffffff167f6ae172837ea30b801fbfcdd4108aa1d5bf8ff775444fd70256b44e6bf3dfc3f660405160405180910390a250565b6200024682826200031860201b60201c565b15620002ba576040517f08c379a000000000000000000000000000000000000000000000000000000000815260040180806020018281038252601f8152602001807f526f6c65733a206163636f756e7420616c72656164792068617320726f6c650081525060200191505060405180910390fd5b60018260000160008373ffffffffffffffffffffffffffffffffffffffff1673ffffffffffffffffffffffffffffffffffffffff16815260200190815260200160002060006101000a81548160ff0219169083151502179055505050565b60008073ffffffffffffffffffffffffffffffffffffffff168273ffffffffffffffffffffffffffffffffffffffff161415620003a1576040517f08c379a0000000000000000000000000000000000000000000000000000000008152600401808060200182810382526022815260200180620029866022913960400191505060405180910390fd5b8260000160008373ffffffffffffffffffffffffffffffffffffffff1673ffffffffffffffffffffffffffffffffffffffff16815260200190815260200160002060009054906101000a900460ff16905092915050565b828054600181600116156101000203166002900490600052602060002090601f016020900481019282601f106200043b57805160ff19168380011785556200046c565b828001600101855582156200046c579182015b828111156200046b5782518255916020019190600101906200044e565b5b5090506200047b91906200047f565b5090565b620004a491905b80821115620004a057600081600090555060010162000486565b5090565b90565b6124cf80620004b76000396000f3fe60806040526004361061014b5760003560e01c80637b103999116100b6578063a8b9d2401161006f578063a8b9d24014610770578063a9059cbb146107d5578063aa271e1a14610848578063aafd847a146108b1578063cdb80c5114610916578063dd62ed3e1461096d5761014b565b80637b1039991461054957806391b89fba146105a057806395d89b4114610605578063983b2d561461069557806398650275146106e6578063a457c2d7146106fd5761014b565b8063313ce56711610108578063313ce5671461038557806339509351146103b657806340c10f19146104295780636a4740021461049c57806370a08231146104b35780637af78fab146105185761014b565b806303c833021461015557806306fdde031461015f578063095ea7b3146101ef57806318160ddd1461026257806323b872dd1461028d57806327ce014714610320575b6101536109f2565b005b61015d6109f2565b005b34801561016b57600080fd5b50610174610aae565b6040518080602001828103825283818151815260200191508051906020019080838360005b838110156101b4578082015181840152602081019050610199565b50505050905090810190601f1680156101e15780820380516001836020036101000a031916815260200191505b509250505060405180910390f35b3480156101fb57600080fd5b506102486004803603604081101561021257600080fd5b81019080803573ffffffffffffffffffffffffffffffffffffffff16906020019092919080359060200190929190505050610b50565b604051808215151515815260200191505060405180910390f35b34801561026e57600080fd5b50610277610b67565b6040518082815260200191505060405180910390f35b34801561029957600080fd5b50610306600480360360608110156102b057600080fd5b81019080803573ffffffffffffffffffffffffffffffffffffffff169060200190929190803573ffffffffffffffffffffffffffffffffffffffff16906020019092919080359060200190929190505050610b71565b604051808215151515815260200191505060405180910390f35b34801561032c57600080fd5b5061036f6004803603602081101561034357600080fd5b81019080803573ffffffffffffffffffffffffffffffffffffffff169060200190929190505050610ba1565b6040518082815260200191505060405180910390f35b34801561039157600080fd5b5061039a610c42565b604051808260ff1660ff16815260200191505060405180910390f35b3480156103c257600080fd5b5061040f600480360360408110156103d957600080fd5b81019080803573ffffffffffffffffffffffffffffffffffffffff16906020019092919080359060200190929190505050610c59565b604051808215151515815260200191505060405180910390f35b34801561043557600080fd5b506104826004803603604081101561044c57600080fd5b81019080803573ffffffffffffffffffffffffffffffffffffffff16906020019092919080359060200190929190505050610cfe565b604051808215151515815260200191505060405180910390f35b3480156104a857600080fd5b506104b1610d72565b005b3480156104bf57600080fd5b50610502600480360360208110156104d657600080fd5b81019080803573ffffffffffffffffffffffffffffffffffffffff169060200190929190505050610eb6565b6040518082815260200191505060405180910390f35b34801561052457600080fd5b5061052d610efe565b604051808260ff1660ff16815260200191505060405180910390f35b34801561055557600080fd5b5061055e610f03565b604051808273ffffffffffffffffffffffffffffffffffffffff1673ffffffffffffffffffffffffffffffffffffffff16815260200191505060405180910390f35b3480156105ac57600080fd5b506105ef600480360360208110156105c357600080fd5b81019080803573ffffffffffffffffffffffffffffffffffffffff169060200190929190505050610f29565b6040518082815260200191505060405180910390f35b34801561061157600080fd5b5061061a610f3b565b6040518080602001828103825283818151815260200191508051906020019080838360005b8381101561065a57808201518184015260208101905061063f565b50505050905090810190601f1680156106875780820380516001836020036101000a031916815260200191505b509250505060405180910390f35b3480156106a157600080fd5b506106e4600480360360208110156106b857600080fd5b81019080803573ffffffffffffffffffffffffffffffffffffffff169060200190929190505050610fdd565b005b3480156106f257600080fd5b506106fb611047565b005b34801561070957600080fd5b506107566004803603604081101561072057600080fd5b81019080803573ffffffffffffffffffffffffffffffffffffffff16906020019092919080359060200190929190505050611052565b604051808215151515815260200191505060405180910390f35b34801561077c57600080fd5b506107bf6004803603602081101561079357600080fd5b81019080803573ffffffffffffffffffffffffffffffffffffffff1690602001909291905050506110f7565b6040518082815260200191505060405180910390f35b3480156107e157600080fd5b5061082e600480360360408110156107f857600080fd5b81019080803573ffffffffffffffffffffffffffffffffffffffff1690602001909291908035906020019092919050505061115a565b604051808215151515815260200191505060405180910390f35b34801561085457600080fd5b506108976004803603602081101561086b57600080fd5b81019080803573ffffffffffffffffffffffffffffffffffffffff169060200190929190505050611188565b604051808215151515815260200191505060405180910390f35b3480156108bd57600080fd5b50610900600480360360208110156108d457600080fd5b81019080803573ffffffffffffffffffffffffffffffffffffffff1690602001909291905050506111a5565b6040518082815260200191505060405180910390f35b34801561092257600080fd5b5061092b6111ee565b604051808273ffffffffffffffffffffffffffffffffffffffff1673ffffffffffffffffffffffffffffffffffffffff16815260200191505060405180910390f35b34801561097957600080fd5b506109dc6004803603604081101561099057600080fd5b81019080803573ffffffffffffffffffffffffffffffffffffffff169060200190929190803573ffffffffffffffffffffffffffffffffffffffff169060200190929190505050611298565b6040518082815260200191505060405180910390f35b60006109fc610b67565b11610a0657600080fd5b6000341115610aac57610a57610a1a610b67565b610a3e7001000000000000000000000000000000003461131f90919063ffffffff16565b81610a4557fe5b046004546113a590919063ffffffff16565b6004819055503373ffffffffffffffffffffffffffffffffffffffff167fa493a9229478c3fcd73f66d2cdeb7f94fd0f341da924d1054236d78454116511346040518082815260200191505060405180910390a25b565b606060078054600181600116156101000203166002900480601f016020809104026020016040519081016040528092919081815260200182805460018160011615610100020316600290048015610b465780601f10610b1b57610100808354040283529160200191610b46565b820191906000526020600020905b815481529060010190602001808311610b2957829003601f168201915b5050505050905090565b6000610b5d33848461142d565b6001905092915050565b6000600254905090565b6000610b7e848484611624565b15610b9557610b8e8484846117de565b9050610b9a565b600090505b9392505050565b6000700100000000000000000000000000000000610c33610c2e600560008673ffffffffffffffffffffffffffffffffffffffff1673ffffffffffffffffffffffffffffffffffffffff16815260200190815260200160002054610c20610c1b610c0a88610eb6565b60045461131f90919063ffffffff16565b61188f565b6118ac90919063ffffffff16565b6118ee565b81610c3a57fe5b049050919050565b6000600960009054906101000a900460ff16905090565b6000610cf43384610cef85600160003373ffffffffffffffffffffffffffffffffffffffff1673ffffffffffffffffffffffffffffffffffffffff16815260200190815260200160002060008973ffffffffffffffffffffffffffffffffffffffff1673ffffffffffffffffffffffffffffffffffffffff168152602001908152602001600020546113a590919063ffffffff16565b61142d565b6001905092915050565b6000610d0933611188565b610d5e576040517f08c379a00000000000000000000000000000000000000000000000000000000081526004018080602001828103825260308152602001806123c76030913960400191505060405180910390fd5b610d688383611905565b6001905092915050565b6000610d7d336110f7565b90506000811115610eb357610dda81600660003373ffffffffffffffffffffffffffffffffffffffff1673ffffffffffffffffffffffffffffffffffffffff168152602001908152602001600020546113a590919063ffffffff16565b600660003373ffffffffffffffffffffffffffffffffffffffff1673ffffffffffffffffffffffffffffffffffffffff168152602001908152602001600020819055503373ffffffffffffffffffffffffffffffffffffffff167fee503bee2bb6a87e57bc57db795f98137327401a0e7b7ce42e37926cc1a9ca4d826040518082815260200191505060405180910390a23373ffffffffffffffffffffffffffffffffffffffff166108fc829081150290604051600060405180830381858888f19350505050158015610eb1573d6000803e3d6000fd5b505b50565b60008060008373ffffffffffffffffffffffffffffffffffffffff1673ffffffffffffffffffffffffffffffffffffffff168152602001908152602001600020549050919050565b601281565b600960019054906101000a900473ffffffffffffffffffffffffffffffffffffffff1681565b6000610f34826110f7565b9050919050565b606060088054600181600116156101000203166002900480601f016020809104026020016040519081016040528092919081815260200182805460018160011615610100020316600290048015610fd35780601f10610fa857610100808354040283529160200191610fd3565b820191906000526020600020905b815481529060010190602001808311610fb657829003601f168201915b5050505050905090565b610fe633611188565b61103b576040517f08c379a00000000000000000000000000000000000000000000000000000000081526004018080602001828103825260308152602001806123c76030913960400191505060405180910390fd5b611044816119c4565b50565b61105033611a1e565b565b60006110ed33846110e885600160003373ffffffffffffffffffffffffffffffffffffffff1673ffffffffffffffffffffffffffffffffffffffff16815260200190815260200160002060008973ffffffffffffffffffffffffffffffffffffffff1673ffffffffffffffffffffffffffffffffffffffff16815260200190815260200160002054611a7890919063ffffffff16565b61142d565b6001905092915050565b6000611153600660008473ffffffffffffffffffffffffffffffffffffffff1673ffffffffffffffffffffffffffffffffffffffff1681526020019081526020016000205461114584610ba1565b611a7890919063ffffffff16565b9050919050565b6000611167338484611624565b1561117d576111768383611b01565b9050611182565b600090505b92915050565b600061119e826003611b1890919063ffffffff16565b9050919050565b6000600660008373ffffffffffffffffffffffffffffffffffffffff1673ffffffffffffffffffffffffffffffffffffffff168152602001908152602001600020549050919050565b6000600960019054906101000a900473ffffffffffffffffffffffffffffffffffffffff1673ffffffffffffffffffffffffffffffffffffffff1663d598d4c96040518163ffffffff1660e01b815260040160206040518083038186803b15801561125857600080fd5b505afa15801561126c573d6000803e3d6000fd5b505050506040513d602081101561128257600080fd5b8101908080519060200190929190505050905090565b6000600160008473ffffffffffffffffffffffffffffffffffffffff1673ffffffffffffffffffffffffffffffffffffffff16815260200190815260200160002060008373ffffffffffffffffffffffffffffffffffffffff1673ffffffffffffffffffffffffffffffffffffffff16815260200190815260200160002054905092915050565b600080831415611332576000905061139f565b600082840290508284828161134357fe5b041461139a576040517f08c379a00000000000000000000000000000000000000000000000000000000081526004018080602001828103825260218152602001806124186021913960400191505060405180910390fd5b809150505b92915050565b600080828401905083811015611423576040517f08c379a000000000000000000000000000000000000000000000000000000000815260040180806020018281038252601b8152602001807f536166654d6174683a206164646974696f6e206f766572666c6f77000000000081525060200191505060405180910390fd5b8091505092915050565b600073ffffffffffffffffffffffffffffffffffffffff168373ffffffffffffffffffffffffffffffffffffffff1614156114b3576040517f08c379a00000000000000000000000000000000000000000000000000000000081526004018080602001828103825260248152602001806124806024913960400191505060405180910390fd5b600073ffffffffffffffffffffffffffffffffffffffff168273ffffffffffffffffffffffffffffffffffffffff161415611539576040517f08c379a00000000000000000000000000000000000000000000000000000000081526004018080602001828103825260228152602001806123a56022913960400191505060405180910390fd5b80600160008573ffffffffffffffffffffffffffffffffffffffff1673ffffffffffffffffffffffffffffffffffffffff16815260200190815260200160002060008473ffffffffffffffffffffffffffffffffffffffff1673ffffffffffffffffffffffffffffffffffffffff168152602001908152602001600020819055508173ffffffffffffffffffffffffffffffffffffffff168373ffffffffffffffffffffffffffffffffffffffff167f8c5be1e5ebec7d5bd14f71427d1e84f3dd0314c0f7b2291e5b200ac8c7c3b925836040518082815260200191505060405180910390a3505050565b60008061162f6111ee565b73ffffffffffffffffffffffffffffffffffffffff16634277b5b1308787876040518563ffffffff1660e01b8152600401808573ffffffffffffffffffffffffffffffffffffffff1673ffffffffffffffffffffffffffffffffffffffff1681526020018473ffffffffffffffffffffffffffffffffffffffff1673ffffffffffffffffffffffffffffffffffffffff1681526020018373ffffffffffffffffffffffffffffffffffffffff1673ffffffffffffffffffffffffffffffffffffffff168152602001828152602001945050505050602060405180830381600087803b15801561171d57600080fd5b505af1158015611731573d6000803e3d6000fd5b505050506040513d602081101561174757600080fd5b810190808051906020019092919050505090508373ffffffffffffffffffffffffffffffffffffffff168573ffffffffffffffffffffffffffffffffffffffff167fb493f829499e8f7094fff2c3bae9b4618f9dfbb4730fab37007f6c504aeb5aeb8386604051808360ff1660ff1681526020018281526020019250505060405180910390a360008160ff16149150509392505050565b60006117eb848484611bf6565b611884843361187f85600160008a73ffffffffffffffffffffffffffffffffffffffff1673ffffffffffffffffffffffffffffffffffffffff16815260200190815260200160002060003373ffffffffffffffffffffffffffffffffffffffff1673ffffffffffffffffffffffffffffffffffffffff16815260200190815260200160002054611a7890919063ffffffff16565b61142d565b600190509392505050565b60008082905060008112156118a357600080fd5b80915050919050565b6000808284019050600083121580156118c55750838112155b806118db57506000831280156118da57508381125b5b6118e457600080fd5b8091505092915050565b6000808212156118fd57600080fd5b819050919050565b61190f8282611d52565b61197d61192f61192a8360045461131f90919063ffffffff16565b61188f565b600560008573ffffffffffffffffffffffffffffffffffffffff1673ffffffffffffffffffffffffffffffffffffffff16815260200190815260200160002054611f0d90919063ffffffff16565b600560008473ffffffffffffffffffffffffffffffffffffffff1673ffffffffffffffffffffffffffffffffffffffff168152602001908152602001600020819055505050565b6119d8816003611f4d90919063ffffffff16565b8073ffffffffffffffffffffffffffffffffffffffff167f6ae172837ea30b801fbfcdd4108aa1d5bf8ff775444fd70256b44e6bf3dfc3f660405160405180910390a250565b611a3281600361202890919063ffffffff16565b8073ffffffffffffffffffffffffffffffffffffffff167fe94479a9f7e1952cc78f2d6baab678adc1b772d936c6583def489e524cb6669260405160405180910390a250565b600082821115611af0576040517f08c379a000000000000000000000000000000000000000000000000000000000815260040180806020018281038252601e8152602001807f536166654d6174683a207375627472616374696f6e206f766572666c6f77000081525060200191505060405180910390fd5b600082840390508091505092915050565b6000611b0e338484611bf6565b6001905092915050565b60008073ffffffffffffffffffffffffffffffffffffffff168273ffffffffffffffffffffffffffffffffffffffff161415611b9f576040517f08c379a00000000000000000000000000000000000000000000000000000000081526004018080602001828103825260228152602001806124396022913960400191505060405180910390fd5b8260000160008373ffffffffffffffffffffffffffffffffffffffff1673ffffffffffffffffffffffffffffffffffffffff16815260200190815260200160002060009054906101000a900460ff16905092915050565b611c018383836120e5565b6000611c20611c1b8360045461131f90919063ffffffff16565b61188f565b9050611c7481600560008773ffffffffffffffffffffffffffffffffffffffff1673ffffffffffffffffffffffffffffffffffffffff168152602001908152602001600020546118ac90919063ffffffff16565b600560008673ffffffffffffffffffffffffffffffffffffffff1673ffffffffffffffffffffffffffffffffffffffff16815260200190815260200160002081905550611d0981600560008673ffffffffffffffffffffffffffffffffffffffff1673ffffffffffffffffffffffffffffffffffffffff16815260200190815260200160002054611f0d90919063ffffffff16565b600560008573ffffffffffffffffffffffffffffffffffffffff1673ffffffffffffffffffffffffffffffffffffffff1681526020019081526020016000208190555050505050565b600073ffffffffffffffffffffffffffffffffffffffff168273ffffffffffffffffffffffffffffffffffffffff161415611df5576040517f08c379a000000000000000000000000000000000000000000000000000000000815260040180806020018281038252601f8152602001807f45524332303a206d696e7420746f20746865207a65726f20616464726573730081525060200191505060405180910390fd5b611e0a816002546113a590919063ffffffff16565b600281905550611e61816000808573ffffffffffffffffffffffffffffffffffffffff1673ffffffffffffffffffffffffffffffffffffffff168152602001908152602001600020546113a590919063ffffffff16565b6000808473ffffffffffffffffffffffffffffffffffffffff1673ffffffffffffffffffffffffffffffffffffffff168152602001908152602001600020819055508173ffffffffffffffffffffffffffffffffffffffff16600073ffffffffffffffffffffffffffffffffffffffff167fddf252ad1be2c89b69c2b068fc378daa952ba7f163c4a11628f55a4df523b3ef836040518082815260200191505060405180910390a35050565b6000808212158015611f2157508282840313155b80611f395750600082128015611f38575082828403135b5b611f4257600080fd5b818303905092915050565b611f578282611b18565b15611fca576040517f08c379a000000000000000000000000000000000000000000000000000000000815260040180806020018281038252601f8152602001807f526f6c65733a206163636f756e7420616c72656164792068617320726f6c650081525060200191505060405180910390fd5b60018260000160008373ffffffffffffffffffffffffffffffffffffffff1673ffffffffffffffffffffffffffffffffffffffff16815260200190815260200160002060006101000a81548160ff0219169083151502179055505050565b6120328282611b18565b612087576040517f08c379a00000000000000000000000000000000000000000000000000000000081526004018080602001828103825260218152602001806123f76021913960400191505060405180910390fd5b60008260000160008373ffffffffffffffffffffffffffffffffffffffff1673ffffffffffffffffffffffffffffffffffffffff16815260200190815260200160002060006101000a81548160ff0219169083151502179055505050565b600073ffffffffffffffffffffffffffffffffffffffff168373ffffffffffffffffffffffffffffffffffffffff16141561216b576040517f08c379a000000000000000000000000000000000000000000000000000000000815260040180806020018281038252602581526020018061245b6025913960400191505060405180910390fd5b600073ffffffffffffffffffffffffffffffffffffffff168273ffffffffffffffffffffffffffffffffffffffff1614156121f1576040517f08c379a00000000000000000000000000000000000000000000000000000000081526004018080602001828103825260238152602001806123826023913960400191505060405180910390fd5b612242816000808673ffffffffffffffffffffffffffffffffffffffff1673ffffffffffffffffffffffffffffffffffffffff16815260200190815260200160002054611a7890919063ffffffff16565b6000808573ffffffffffffffffffffffffffffffffffffffff1673ffffffffffffffffffffffffffffffffffffffff168152602001908152602001600020819055506122d5816000808573ffffffffffffffffffffffffffffffffffffffff1673ffffffffffffffffffffffffffffffffffffffff168152602001908152602001600020546113a590919063ffffffff16565b6000808473ffffffffffffffffffffffffffffffffffffffff1673ffffffffffffffffffffffffffffffffffffffff168152602001908152602001600020819055508173ffffffffffffffffffffffffffffffffffffffff168373ffffffffffffffffffffffffffffffffffffffff167fddf252ad1be2c89b69c2b068fc378daa952ba7f163c4a11628f55a4df523b3ef836040518082815260200191505060405180910390a350505056fe45524332303a207472616e7366657220746f20746865207a65726f206164647265737345524332303a20617070726f766520746f20746865207a65726f20616464726573734d696e746572526f6c653a2063616c6c657220646f6573206e6f74206861766520746865204d696e74657220726f6c65526f6c65733a206163636f756e7420646f6573206e6f74206861766520726f6c65536166654d6174683a206d756c7469706c69636174696f6e206f766572666c6f77526f6c65733a206163636f756e7420697320746865207a65726f206164647265737345524332303a207472616e736665722066726f6d20746865207a65726f206164647265737345524332303a20617070726f76652066726f6d20746865207a65726f2061646472657373a165627a7a72305820d3a39506dda7e1321e3b9e79c61592e29100610aed6d479db8ae043f85345ed40029526f6c65733a206163636f756e7420697320746865207a65726f2061646472657373",
  "source": "/**\n   Copyright (c) 2017 Harbor Platform, Inc.\n\n   Licensed under the Apache License, Version 2.0 (the License);\n   you may not use this file except in compliance with the License.\n   You may obtain a copy of the License at\n\n   http://www.apache.org/licenses/LICENSE-2.0\n\n   Unless required by applicable law or agreed to in writing, software\n   distributed under the License is distributed on an AS IS BASIS,\n   WITHOUT WARRANTIES OR CONDITIONS OF ANY KIND, either express or implied.\n   See the License for the specific language governing permissions and\n   limitations under the License.\n*/\n\npragma solidity ^0.5.0;\n\nimport './ERC20Detailed.sol';\nimport './ERC20Mintable.sol';\nimport './DividendEngine.sol';\nimport './Registry.sol';\nimport './RegulatorService.sol';\n\n/// @notice An ERC-20 token that has the ability to check for trade validity\ncontract SecurityToken is DividendEngine, ERC20Detailed {\n\n  /**\n   * @notice R-Token decimals setting (used when constructing DetailedERC20)\n   */\n  uint8 constant public RTOKEN_DECIMALS = 18;\n\n  /**\n   * @notice Triggered when regulator checks pass or fail\n   */\n  event CheckStatus(uint8 reason, address indexed from, address indexed to, uint256 value);\n\n  /**\n   * @notice Address of the `ServiceRegistry` that has the location of the\n   *         `RegulatorService` contract responsible for checking trade\n   *         permissions.\n   */\n  Registry public registry;\n\n  /**\n   * @notice Constructor\n   *\n   * @param _registry Address of `ServiceRegistry` contract\n   * @param _name Name of the token: See DetailedERC20\n   * @param _symbol Symbol of the token: See DetailedERC20\n   */\n  constructor (Registry _registry, string memory _name, string memory _symbol) public\n    ERC20Detailed(_name, _symbol, RTOKEN_DECIMALS)\n  {\n    require(address(_registry) != address(0));\n\n    registry = _registry;\n  }\n\n  /**\n   * @notice ERC-20 overridden function that include logic to check for trade validity.\n   *\n   * @param _to The address of the receiver\n   * @param _value The number of tokens to transfer\n   *\n   * @return `true` if successful and `false` if unsuccessful\n   */\n  function transfer(address _to, uint256 _value) public returns (bool) {\n    if (_check(msg.sender, _to, _value)) {\n      return super.transfer(_to, _value);\n    } else {\n      return false;\n    }\n  }\n\n  /**\n   * @notice ERC-20 overridden function that include logic to check for trade validity.\n   *\n   * @param _from The address of the sender\n   * @param _to The address of the receiver\n   * @param _value The number of tokens to transfer\n   *\n   * @return `true` if successful and `false` if unsuccessful\n   */\n  function transferFrom(address _from, address _to, uint256 _value) public returns (bool) {\n    if (_check(_from, _to, _value)) {\n      return super.transferFrom(_from, _to, _value);\n    } else {\n      return false;\n    }\n  }\n\n  /**\n   * @notice Performs the regulator check\n   *\n   * @dev This method raises a CheckStatus event indicating success or failure of the check\n   *\n   * @param _from The address of the sender\n   * @param _to The address of the receiver\n   * @param _value The number of tokens to transfer\n   *\n   * @return `true` if the check was successful and `false` if unsuccessful\n   */\n  function _check(address _from, address _to, uint256 _value) private returns (bool){\n    uint8 reason = _service().check(address(this), _from, _to, _value);\n\n    emit CheckStatus(reason, _from, _to, _value);\n\n    return reason == 0;\n  }\n\n  /**\n   * @notice Retreives the address of the `RegulatorService` that manages this token.\n   *\n   * @dev This function *MUST NOT* memoize the `RegulatorService` address.  This would\n   *      break the ability to upgrade the `RegulatorService`.\n   *\n   * @return The `RegulatorService` that manages this token.\n   */\n  function _service() view public returns (RegulatorService) {\n    return RegulatorService(registry.service());\n  }\n}\n",
  "sourcePath": "C:\\Users\\mauri\\Documents\\TFGtokenRepo\\contracts\\SecurityToken.sol",
  "compiler": {
    "name": "solc",
    "version": "0.5.8+commit.23d335f2.Emscripten.clang"
  },
  "schemaVersion": "3.0.11",
  "updatedAt": "2019-06-19T14:58:52.460Z",
  "devdoc": {
    "methods": {
      "_service()": {
        "details": "This function *MUST NOT* memoize the `RegulatorService` address.  This would     break the ability to upgrade the `RegulatorService`.",
        "return": "The `RegulatorService` that manages this token."
      },
      "accumulativeDividendOf(address)": {
        "details": "accumulativeDividendOf(_owner) = withdrawableDividendOf(_owner) + withdrawnDividendOf(_owner) = (magnifiedDividendPerShare * balanceOf(_owner) + magnifiedDividendCorrections[_owner]) / magnitude",
        "params": {
          "_owner": "The address of a token holder."
        },
        "return": "The amount of dividend in wei that `_owner` has earned in total."
      },
      "allowance(address,address)": {
        "details": "See `IERC20.allowance`."
      },
      "approve(address,uint256)": {
        "details": "See `IERC20.approve`.     * Requirements:     * - `spender` cannot be the zero address."
      },
      "balanceOf(address)": {
        "details": "See `IERC20.balanceOf`."
      },
      "constructor": {
        "params": {
          "_name": "Name of the token: See DetailedERC20",
          "_registry": "Address of `ServiceRegistry` contract",
          "_symbol": "Symbol of the token: See DetailedERC20"
        }
      },
      "decimals()": {
        "details": "Returns the number of decimals used to get its user representation. For example, if `decimals` equals `2`, a balance of `505` tokens should be displayed to a user as `5,05` (`505 / 10 ** 2`).     * Tokens usually opt for a value of 18, imitating the relationship between Ether and Wei.     * > Note that this information is only used for _display_ purposes: it in no way affects any of the arithmetic of the contract, including `IERC20.balanceOf` and `IERC20.transfer`."
      },
      "decreaseAllowance(address,uint256)": {
        "details": "Atomically decreases the allowance granted to `spender` by the caller.     * This is an alternative to `approve` that can be used as a mitigation for problems described in `IERC20.approve`.     * Emits an `Approval` event indicating the updated allowance.     * Requirements:     * - `spender` cannot be the zero address. - `spender` must have allowance for the caller of at least `subtractedValue`."
      },
      "distributeDividends()": {
        "details": "It reverts if the total supply of tokens is 0. It emits the `DividendsDistributed` event if the amount of received ether is greater than 0. About undistributed ether:   In each distribution, there is a small amount of ether not distributed,     the magnified amount of which is     `(msg.value * magnitude) % totalSupply()`.   With a well-chosen `magnitude`, the amount of undistributed ether     (de-magnified) in a distribution can be less than 1 wei.   We can actually keep track of the undistributed ether in a distribution     and try to distribute it in the next distribution,     but keeping track of such data on-chain costs much more than     the saved ether, so we don't do that."
      },
      "dividendOf(address)": {
        "params": {
          "_owner": "The address of a token holder."
        },
        "return": "The amount of dividend in wei that `_owner` can withdraw."
      },
      "increaseAllowance(address,uint256)": {
        "details": "Atomically increases the allowance granted to `spender` by the caller.     * This is an alternative to `approve` that can be used as a mitigation for problems described in `IERC20.approve`.     * Emits an `Approval` event indicating the updated allowance.     * Requirements:     * - `spender` cannot be the zero address."
      },
      "mint(address,uint256)": {
        "details": "See `ERC20._mint`.     * Requirements:     * - the caller must have the `MinterRole`."
      },
      "name()": {
        "details": "Returns the name of the token."
      },
      "symbol()": {
        "details": "Returns the symbol of the token, usually a shorter version of the name."
      },
      "totalSupply()": {
        "details": "See `IERC20.totalSupply`."
      },
      "transfer(address,uint256)": {
        "params": {
          "_to": "The address of the receiver",
          "_value": "The number of tokens to transfer"
        },
        "return": "`true` if successful and `false` if unsuccessful"
      },
      "transferFrom(address,address,uint256)": {
        "params": {
          "_from": "The address of the sender",
          "_to": "The address of the receiver",
          "_value": "The number of tokens to transfer"
        },
        "return": "`true` if successful and `false` if unsuccessful"
      },
      "withdrawDividend()": {
        "details": "It emits a `DividendWithdrawn` event if the amount of withdrawn ether is greater than 0."
      },
      "withdrawableDividendOf(address)": {
        "params": {
          "_owner": "The address of a token holder."
        },
        "return": "The amount of dividend in wei that `_owner` can withdraw."
      },
      "withdrawnDividendOf(address)": {
        "params": {
          "_owner": "The address of a token holder."
        },
        "return": "The amount of dividend in wei that `_owner` has withdrawn."
      }
    }
  },
  "userdoc": {
    "methods": {
      "_service()": {
        "notice": "Retreives the address of the `RegulatorService` that manages this token."
      },
      "accumulativeDividendOf(address)": {
        "notice": "View the amount of dividend in wei that an address has earned in total."
      },
      "constructor": "Constructor",
      "distributeDividends()": {
        "notice": "Distributes ether to token holders as dividends."
      },
      "dividendOf(address)": {
        "notice": "View the amount of dividend in wei that an address can withdraw."
      },
      "transfer(address,uint256)": {
        "notice": "ERC-20 overridden function that include logic to check for trade validity."
      },
      "transferFrom(address,address,uint256)": {
        "notice": "ERC-20 overridden function that include logic to check for trade validity."
      },
      "withdrawDividend()": {
        "notice": "Withdraws the ether distributed to the sender."
      },
      "withdrawableDividendOf(address)": {
        "notice": "View the amount of dividend in wei that an address can withdraw."
      },
      "withdrawnDividendOf(address)": {
        "notice": "View the amount of dividend in wei that an address has withdrawn."
      }
    },
    "notice": "An ERC-20 token that has the ability to check for trade validity"
  }
}