{
  "contractName": "TokenRules",
  "abi": [
    {
      "constant": false,
      "inputs": [],
      "name": "renounceOwnership",
      "outputs": [],
      "payable": false,
      "stateMutability": "nonpayable",
      "type": "function"
    },
    {
      "constant": true,
      "inputs": [],
      "name": "owner",
      "outputs": [
        {
          "name": "",
          "type": "address"
        }
      ],
      "payable": false,
      "stateMutability": "view",
      "type": "function"
    },
    {
      "constant": true,
      "inputs": [],
      "name": "isOwner",
      "outputs": [
        {
          "name": "",
          "type": "bool"
        }
      ],
      "payable": false,
      "stateMutability": "view",
      "type": "function"
    },
    {
      "constant": false,
      "inputs": [
        {
          "name": "newOwner",
          "type": "address"
        }
      ],
      "name": "transferOwnership",
      "outputs": [],
      "payable": false,
      "stateMutability": "nonpayable",
      "type": "function"
    },
    {
      "constant": true,
      "inputs": [],
      "name": "admin",
      "outputs": [
        {
          "name": "",
          "type": "address"
        }
      ],
      "payable": false,
      "stateMutability": "view",
      "type": "function"
    },
    {
      "inputs": [],
      "payable": false,
      "stateMutability": "nonpayable",
      "type": "constructor"
    },
    {
      "anonymous": false,
      "inputs": [
        {
          "indexed": true,
          "name": "token",
          "type": "address"
        },
        {
          "indexed": false,
          "name": "locked",
          "type": "bool"
        }
      ],
      "name": "LogLockSet",
      "type": "event"
    },
    {
      "anonymous": false,
      "inputs": [
        {
          "indexed": true,
          "name": "token",
          "type": "address"
        },
        {
          "indexed": false,
          "name": "enabled",
          "type": "bool"
        }
      ],
      "name": "LogPartialTransferSet",
      "type": "event"
    },
    {
      "anonymous": false,
      "inputs": [
        {
          "indexed": true,
          "name": "token",
          "type": "address"
        },
        {
          "indexed": true,
          "name": "participant",
          "type": "address"
        },
        {
          "indexed": false,
          "name": "permission",
          "type": "uint8"
        }
      ],
      "name": "LogPermissionSet",
      "type": "event"
    },
    {
      "anonymous": false,
      "inputs": [
        {
          "indexed": true,
          "name": "oldAdmin",
          "type": "address"
        },
        {
          "indexed": true,
          "name": "newAdmin",
          "type": "address"
        }
      ],
      "name": "LogTransferAdmin",
      "type": "event"
    },
    {
      "anonymous": false,
      "inputs": [
        {
          "indexed": true,
          "name": "previousOwner",
          "type": "address"
        },
        {
          "indexed": true,
          "name": "newOwner",
          "type": "address"
        }
      ],
      "name": "OwnershipTransferred",
      "type": "event"
    },
    {
      "constant": false,
      "inputs": [
        {
          "name": "_token",
          "type": "address"
        },
        {
          "name": "_locked",
          "type": "bool"
        }
      ],
      "name": "setLocked",
      "outputs": [],
      "payable": false,
      "stateMutability": "nonpayable",
      "type": "function"
    },
    {
      "constant": false,
      "inputs": [
        {
          "name": "_token",
          "type": "address"
        },
        {
          "name": "_enabled",
          "type": "bool"
        }
      ],
      "name": "setPartialTransfers",
      "outputs": [],
      "payable": false,
      "stateMutability": "nonpayable",
      "type": "function"
    },
    {
      "constant": false,
      "inputs": [
        {
          "name": "_token",
          "type": "address"
        },
        {
          "name": "_participant",
          "type": "address"
        },
        {
          "name": "_permission",
          "type": "uint8"
        }
      ],
      "name": "setPermission",
      "outputs": [],
      "payable": false,
      "stateMutability": "nonpayable",
      "type": "function"
    },
    {
      "constant": false,
      "inputs": [
        {
          "name": "newAdmin",
          "type": "address"
        }
      ],
      "name": "transferAdmin",
      "outputs": [],
      "payable": false,
      "stateMutability": "nonpayable",
      "type": "function"
    },
    {
      "constant": false,
      "inputs": [
        {
          "name": "_token",
          "type": "address"
        },
        {
          "name": "_from",
          "type": "address"
        },
        {
          "name": "_to",
          "type": "address"
        },
        {
          "name": "_amount",
          "type": "uint256"
        }
      ],
      "name": "check",
      "outputs": [
        {
          "name": "",
          "type": "uint8"
        }
      ],
      "payable": false,
      "stateMutability": "nonpayable",
      "type": "function"
    }
  ],
  "bytecode": "0x608060405234801561001057600080fd5b50336000806101000a81548173ffffffffffffffffffffffffffffffffffffffff021916908373ffffffffffffffffffffffffffffffffffffffff1602179055506000809054906101000a900473ffffffffffffffffffffffffffffffffffffffff1673ffffffffffffffffffffffffffffffffffffffff16600073ffffffffffffffffffffffffffffffffffffffff167f8be0079c531659141344cd1fd0a4f28419497f9722a3daafe3b4186f6b6457e060405160405180910390a333600160006101000a81548173ffffffffffffffffffffffffffffffffffffffff021916908373ffffffffffffffffffffffffffffffffffffffff160217905550610fc58061011d6000396000f3fe608060405234801561001057600080fd5b506004361061009e5760003560e01c80638da5cb5b116100665780638da5cb5b1461025a5780638f32d59b146102a457806392f96115146102c6578063f2fde38b14610316578063f851a4401461035a5761009e565b806305204231146100a35780634277b5b114610114578063715018a6146101bc57806375829def146101c657806389ad0a341461020a575b600080fd5b610112600480360360608110156100b957600080fd5b81019080803573ffffffffffffffffffffffffffffffffffffffff169060200190929190803573ffffffffffffffffffffffffffffffffffffffff169060200190929190803560ff1690602001909291905050506103a4565b005b6101a06004803603608081101561012a57600080fd5b81019080803573ffffffffffffffffffffffffffffffffffffffff169060200190929190803573ffffffffffffffffffffffffffffffffffffffff169060200190929190803573ffffffffffffffffffffffffffffffffffffffff16906020019092919080359060200190929190505050610540565b604051808260ff1660ff16815260200191505060405180910390f35b6101c461076c565b005b610208600480360360208110156101dc57600080fd5b81019080803573ffffffffffffffffffffffffffffffffffffffff1690602001909291905050506108a5565b005b6102586004803603604081101561022057600080fd5b81019080803573ffffffffffffffffffffffffffffffffffffffff169060200190929190803515159060200190929190505050610a1f565b005b610262610b49565b604051808273ffffffffffffffffffffffffffffffffffffffff1673ffffffffffffffffffffffffffffffffffffffff16815260200191505060405180910390f35b6102ac610b72565b604051808215151515815260200191505060405180910390f35b610314600480360360408110156102dc57600080fd5b81019080803573ffffffffffffffffffffffffffffffffffffffff169060200190929190803515159060200190929190505050610bc9565b005b6103586004803603602081101561032c57600080fd5b81019080803573ffffffffffffffffffffffffffffffffffffffff169060200190929190505050610cf3565b005b610362610d79565b604051808273ffffffffffffffffffffffffffffffffffffffff1673ffffffffffffffffffffffffffffffffffffffff16815260200191505060405180910390f35b600160009054906101000a900473ffffffffffffffffffffffffffffffffffffffff1673ffffffffffffffffffffffffffffffffffffffff163373ffffffffffffffffffffffffffffffffffffffff1614806104325750610403610b49565b73ffffffffffffffffffffffffffffffffffffffff163373ffffffffffffffffffffffffffffffffffffffff16145b61043b57600080fd5b80600360008573ffffffffffffffffffffffffffffffffffffffff1673ffffffffffffffffffffffffffffffffffffffff16815260200190815260200160002060008473ffffffffffffffffffffffffffffffffffffffff1673ffffffffffffffffffffffffffffffffffffffff16815260200190815260200160002060006101000a81548160ff021916908360ff1602179055508173ffffffffffffffffffffffffffffffffffffffff168373ffffffffffffffffffffffffffffffffffffffff167f79ce3a32c049677f0da6a41a1035fc36947480d903cbae5f26118d5d5b96e7d883604051808260ff1660ff16815260200191505060405180910390a3505050565b6000600260008673ffffffffffffffffffffffffffffffffffffffff1673ffffffffffffffffffffffffffffffffffffffff16815260200190815260200160002060000160009054906101000a900460ff16156105a05760019050610764565b60006001600360008873ffffffffffffffffffffffffffffffffffffffff1673ffffffffffffffffffffffffffffffffffffffff16815260200190815260200160002060008773ffffffffffffffffffffffffffffffffffffffff1673ffffffffffffffffffffffffffffffffffffffff16815260200190815260200160002060009054906101000a900460ff161660ff1614156106415760039050610764565b60006002600360008873ffffffffffffffffffffffffffffffffffffffff1673ffffffffffffffffffffffffffffffffffffffff16815260200190815260200160002060008673ffffffffffffffffffffffffffffffffffffffff1673ffffffffffffffffffffffffffffffffffffffff16815260200190815260200160002060009054906101000a900460ff161660ff1614156106e25760049050610764565b600260008673ffffffffffffffffffffffffffffffffffffffff1673ffffffffffffffffffffffffffffffffffffffff16815260200190815260200160002060000160019054906101000a900460ff161580156107515750600061074586610d9f565b838161074d57fe5b0614155b1561075f5760029050610764565b600090505b949350505050565b610774610b72565b6107e6576040517f08c379a00000000000000000000000000000000000000000000000000000000081526004018080602001828103825260208152602001807f4f776e61626c653a2063616c6c6572206973206e6f7420746865206f776e657281525060200191505060405180910390fd5b600073ffffffffffffffffffffffffffffffffffffffff166000809054906101000a900473ffffffffffffffffffffffffffffffffffffffff1673ffffffffffffffffffffffffffffffffffffffff167f8be0079c531659141344cd1fd0a4f28419497f9722a3daafe3b4186f6b6457e060405160405180910390a360008060006101000a81548173ffffffffffffffffffffffffffffffffffffffff021916908373ffffffffffffffffffffffffffffffffffffffff160217905550565b6108ad610b72565b61091f576040517f08c379a00000000000000000000000000000000000000000000000000000000081526004018080602001828103825260208152602001807f4f776e61626c653a2063616c6c6572206973206e6f7420746865206f776e657281525060200191505060405180910390fd5b600073ffffffffffffffffffffffffffffffffffffffff168173ffffffffffffffffffffffffffffffffffffffff16141561095957600080fd5b6000600160009054906101000a900473ffffffffffffffffffffffffffffffffffffffff16905081600160006101000a81548173ffffffffffffffffffffffffffffffffffffffff021916908373ffffffffffffffffffffffffffffffffffffffff1602179055508173ffffffffffffffffffffffffffffffffffffffff168173ffffffffffffffffffffffffffffffffffffffff167f0ad836e1614da10ff391cfc802a39f547f3cdc42900fa72de16b085855c169d560405160405180910390a35050565b610a27610b72565b610a99576040517f08c379a00000000000000000000000000000000000000000000000000000000081526004018080602001828103825260208152602001807f4f776e61626c653a2063616c6c6572206973206e6f7420746865206f776e657281525060200191505060405180910390fd5b80600260008473ffffffffffffffffffffffffffffffffffffffff1673ffffffffffffffffffffffffffffffffffffffff16815260200190815260200160002060000160006101000a81548160ff0219169083151502179055508173ffffffffffffffffffffffffffffffffffffffff167f0a12157eaf7bc78c797f32f0756efb6a90d605759d6e535a278033ec487d176682604051808215151515815260200191505060405180910390a25050565b60008060009054906101000a900473ffffffffffffffffffffffffffffffffffffffff16905090565b60008060009054906101000a900473ffffffffffffffffffffffffffffffffffffffff1673ffffffffffffffffffffffffffffffffffffffff163373ffffffffffffffffffffffffffffffffffffffff1614905090565b610bd1610b72565b610c43576040517f08c379a00000000000000000000000000000000000000000000000000000000081526004018080602001828103825260208152602001807f4f776e61626c653a2063616c6c6572206973206e6f7420746865206f776e657281525060200191505060405180910390fd5b80600260008473ffffffffffffffffffffffffffffffffffffffff1673ffffffffffffffffffffffffffffffffffffffff16815260200190815260200160002060000160016101000a81548160ff0219169083151502179055508173ffffffffffffffffffffffffffffffffffffffff167f85d37ec694752aafe8ff3ea3fb045641ded9ae08224d069215d88722175a8db882604051808215151515815260200191505060405180910390a25050565b610cfb610b72565b610d6d576040517f08c379a00000000000000000000000000000000000000000000000000000000081526004018080602001828103825260208152602001807f4f776e61626c653a2063616c6c6572206973206e6f7420746865206f776e657281525060200191505060405180910390fd5b610d7681610e2f565b50565b600160009054906101000a900473ffffffffffffffffffffffffffffffffffffffff1681565b60008173ffffffffffffffffffffffffffffffffffffffff1663313ce5676040518163ffffffff1660e01b815260040160206040518083038186803b158015610de757600080fd5b505afa158015610dfb573d6000803e3d6000fd5b505050506040513d6020811015610e1157600080fd5b810190808051906020019092919050505060ff16600a0a9050919050565b600073ffffffffffffffffffffffffffffffffffffffff168173ffffffffffffffffffffffffffffffffffffffff161415610eb5576040517f08c379a0000000000000000000000000000000000000000000000000000000008152600401808060200182810382526026815260200180610f746026913960400191505060405180910390fd5b8073ffffffffffffffffffffffffffffffffffffffff166000809054906101000a900473ffffffffffffffffffffffffffffffffffffffff1673ffffffffffffffffffffffffffffffffffffffff167f8be0079c531659141344cd1fd0a4f28419497f9722a3daafe3b4186f6b6457e060405160405180910390a3806000806101000a81548173ffffffffffffffffffffffffffffffffffffffff021916908373ffffffffffffffffffffffffffffffffffffffff1602179055505056fe4f776e61626c653a206e6577206f776e657220697320746865207a65726f2061646472657373a165627a7a723058204a1cae3e8a4d2af72a07cc78007c7c7cedca6fe34a31249a7a8b37f8c5082f1d0029",
  "source": "/**\n   Copyright (c) 2017 Harbor Platform, Inc.\n\n   Licensed under the Apache License, Version 2.0 (the “License”);\n   you may not use this file except in compliance with the License.\n   You may obtain a copy of the License at\n\n   http://www.apache.org/licenses/LICENSE-2.0\n\n   Unless required by applicable law or agreed to in writing, software\n   distributed under the License is distributed on an “AS IS” BASIS,\n   WITHOUT WARRANTIES OR CONDITIONS OF ANY KIND, either express or implied.\n   See the License for the specific language governing permissions and\n   limitations under the License.\n*/\n\npragma solidity ^0.5.0;\n\nimport './Ownable.sol';\nimport './ERC20Detailed.sol';\nimport './SecurityToken.sol';\nimport './RegulatorService.sol';\n\n/**\n * @title  On-chain RegulatorService implementation for approving trades\n * @author Bob Remeika\n */\ncontract TokenRules is RegulatorService, Ownable {\n  /**\n   * @dev Throws if called by any account other than the admin\n   */\n  modifier onlyAdmins() {\n    require(msg.sender == address(admin) || msg.sender == owner());\n    _;\n  }\n\n  /// @dev Settings that affect token trading at a global level\n  struct Settings {\n\n    /**\n     * @dev Toggle for locking/unlocking trades at a token level.\n     *      The default behavior of the zero memory state for locking will be unlocked.\n     */\n    bool locked;\n\n    /**\n     * @dev Toggle for allowing/disallowing fractional token trades at a token level.\n     *      The default state when this contract is created `false` (or no partial\n     *      transfers allowed).\n     */\n    bool partialTransfers;\n  }\n\n  // @dev Check success code\n  uint8 constant private CHECK_SUCCESS = 0;\n\n  // @dev Check error reason: Token is locked\n  uint8 constant private CHECK_ELOCKED = 1;\n\n  // @dev Check error reason: Token can not trade partial amounts\n  uint8 constant private CHECK_EDIVIS = 2;\n\n  // @dev Check error reason: Sender is not allowed to send the token\n  uint8 constant private CHECK_ESEND = 3;\n\n  // @dev Check error reason: Receiver is not allowed to receive the token\n  uint8 constant private CHECK_ERECV = 4;\n\n  /// @dev Permission bits for allowing a participant to send tokens\n  uint8 constant private PERM_SEND = 0x1;\n\n  /// @dev Permission bits for allowing a participant to receive tokens\n  uint8 constant private PERM_RECEIVE = 0x2;\n\n  // @dev Address of the administrator\n  address public admin;\n\n  /// @notice Permissions that allow/disallow token trades on a per token level\n  mapping(address => Settings) private settings;\n\n  /// @dev Permissions that allow/disallow token trades on a per participant basis.\n  ///      The format for key based access is `participants[tokenAddress][participantAddress]`\n  ///      which returns the permission bits of a participant for a particular token.\n  mapping(address => mapping(address => uint8)) private participants;\n\n  /// @dev Event raised when a token's locked setting is set\n  event LogLockSet(address indexed token, bool locked);\n\n  /// @dev Event raised when a token's partial transfer setting is set\n  event LogPartialTransferSet(address indexed token, bool enabled);\n\n  /// @dev Event raised when a participant permissions are set for a token\n  event LogPermissionSet(address indexed token, address indexed participant, uint8 permission);\n\n  /// @dev Event raised when the admin address changes\n  event LogTransferAdmin(address indexed oldAdmin, address indexed newAdmin);\n\n  constructor() public {\n    admin = msg.sender;\n  }\n\n  /**\n   * @notice Locks the ability to trade a token\n   *\n   * @dev    This method can only be called by this contract's owner\n   *\n   * @param  _token The address of the token to lock\n   */\n  function setLocked(address _token, bool _locked) onlyOwner public {\n    settings[_token].locked = _locked;\n\n    emit LogLockSet(_token, _locked);\n  }\n\n  /**\n   * @notice Allows the ability to trade a fraction of a token\n   *\n   * @dev    This method can only be called by this contract's owner\n   *\n   * @param  _token The address of the token to allow partial transfers\n   */\n  function setPartialTransfers(address _token, bool _enabled) onlyOwner public {\n   settings[_token].partialTransfers = _enabled;\n\n   emit LogPartialTransferSet(_token, _enabled);\n  }\n\n  /**\n   * @notice Sets the trade permissions for a participant on a token\n   *\n   * @dev    The `_permission` bits overwrite the previous trade permissions and can\n   *         only be called by the contract's owner.  `_permissions` can be bitwise\n   *         `|`'d together to allow for more than one permission bit to be set.\n   *\n   * @param  _token The address of the token\n   * @param  _participant The address of the trade participant\n   * @param  _permission Permission bits to be set\n   */\n  function setPermission(address _token, address _participant, uint8 _permission) onlyAdmins public {\n    participants[_token][_participant] = _permission;\n\n    emit LogPermissionSet(_token, _participant, _permission);\n  }\n\n  /**\n   * @dev Allows the owner to transfer admin controls to newAdmin.\n   *\n   * @param newAdmin The address to transfer admin rights to.\n   */\n  function transferAdmin(address newAdmin) onlyOwner public {\n    require(newAdmin != address(0));\n\n    address oldAdmin = admin;\n    admin = newAdmin;\n\n    emit LogTransferAdmin(oldAdmin, newAdmin);\n  }\n\n  /**\n   * @notice Checks whether or not a trade should be approved\n   *\n   * @dev    This method calls back to the token contract specified by `_token` for\n   *         information needed to enforce trade approval if needed\n   *\n   * @param  _token The address of the token to be transfered\n   * @param  _from The address of the sender account\n   * @param  _to The address of the receiver account\n   * @param  _amount The quantity of the token to trade\n   *\n   * @return `true` if the trade should be approved and `false` if the trade should not be approved\n   */\n  function check(address _token, address _from, address _to, uint256 _amount) public returns (uint8) {\n    if (settings[_token].locked) {\n      return CHECK_ELOCKED;\n    }\n\n    if (participants[_token][_from] & PERM_SEND == 0) {\n      return CHECK_ESEND;\n    }\n\n    if (participants[_token][_to] & PERM_RECEIVE == 0) {\n      return CHECK_ERECV;\n    }\n\n    if (!settings[_token].partialTransfers && _amount % _wholeToken(_token) != 0) {\n      return CHECK_EDIVIS;\n    }\n\n    return CHECK_SUCCESS;\n  }\n\n  /**\n   * @notice Retrieves the whole token value from a token that this `RegulatorService` manages\n   *\n   * @param  _token The token address of the managed token\n   *\n   * @return The uint256 value that represents a single whole token\n   */\n  function _wholeToken(address _token) view private returns (uint256) {\n    return uint256(10)**ERC20Detailed(_token).decimals();\n  }\n}\n",
  "sourcePath": "C:/Users/mauri/Documents/TFGtokenRepo/contracts/TokenRules.sol",
  "compiler": {
    "name": "solc",
    "version": "0.5.8+commit.23d335f2.Emscripten.clang"
  },
  "schemaVersion": "3.0.11",
  "updatedAt": "2019-06-19T14:58:52.482Z",
  "devdoc": {
    "author": "Bob Remeika",
    "methods": {
      "check(address,address,address,uint256)": {
        "details": "This method calls back to the token contract specified by `_token` for        information needed to enforce trade approval if needed",
        "params": {
          "_amount": "The quantity of the token to trade",
          "_from": "The address of the sender account",
          "_to": "The address of the receiver account",
          "_token": "The address of the token to be transfered"
        },
        "return": "`true` if the trade should be approved and `false` if the trade should not be approved"
      },
      "isOwner()": {
        "details": "Returns true if the caller is the current owner."
      },
      "owner()": {
        "details": "Returns the address of the current owner."
      },
      "renounceOwnership()": {
        "details": "Leaves the contract without owner. It will not be possible to call `onlyOwner` functions anymore. Can only be called by the current owner.     * > Note: Renouncing ownership will leave the contract without an owner, thereby removing any functionality that is only available to the owner."
      },
      "setLocked(address,bool)": {
        "details": "This method can only be called by this contract's owner",
        "params": {
          "_token": "The address of the token to lock"
        }
      },
      "setPartialTransfers(address,bool)": {
        "details": "This method can only be called by this contract's owner",
        "params": {
          "_token": "The address of the token to allow partial transfers"
        }
      },
      "setPermission(address,address,uint8)": {
        "details": "The `_permission` bits overwrite the previous trade permissions and can        only be called by the contract's owner.  `_permissions` can be bitwise        `|`'d together to allow for more than one permission bit to be set.",
        "params": {
          "_participant": "The address of the trade participant",
          "_permission": "Permission bits to be set",
          "_token": "The address of the token"
        }
      },
      "transferAdmin(address)": {
        "details": "Allows the owner to transfer admin controls to newAdmin.",
        "params": {
          "newAdmin": "The address to transfer admin rights to."
        }
      },
      "transferOwnership(address)": {
        "details": "Transfers ownership of the contract to a new account (`newOwner`). Can only be called by the current owner."
      }
    },
    "title": "On-chain RegulatorService implementation for approving trades"
  },
  "userdoc": {
    "methods": {
      "check(address,address,address,uint256)": {
        "notice": "Checks whether or not a trade should be approved"
      },
      "setLocked(address,bool)": {
        "notice": "Locks the ability to trade a token"
      },
      "setPartialTransfers(address,bool)": {
        "notice": "Allows the ability to trade a fraction of a token"
      },
      "setPermission(address,address,uint8)": {
        "notice": "Sets the trade permissions for a participant on a token"
      }
    }
  }
}